:020000040800F2
:1000000000000220C9020008350300083903000877
:10001000C5020008C5020008C50200080000000073
:10002000000000000000000000000000C502000801
:10003000C502000800000000C50200088901000890
:10004000C5020008C5020008C5020008C502000874
:10005000C5020008C5020008C5020008C502000864
:10006000C5020008C5020008C5020008C502000854
:10007000C5020008C5020008C5020008C502000844
:10008000C5020008C5020008C5020008C502000834
:10009000C5020008C5020008C5020008C502000824
:1000A000C5020008C5020008C5020008C502000814
:1000B000C5020008C5020008C5020008C502000804
:1000C000C5020008C5020008C5020008C5020008F4
:1000D000C5020008C502000859030008C50200084F
:1000E000C5020008C5020008C5020008C5020008D4
:1000F000C5020008C5020008C5020008C5020008C4
:10010000C5020008C5020008C5020008C5020008B3
:10011000C5020008C5020008C5020008C5020008A3
:10012000C5020008C5020008C5020008C502000893
:10013000C5020008C5020008C5020008C502000883
:10014000C5020008C5020008C5020008C502000873
:10015000C5020008C5020008C5020008C502000863
:10016000C5020008C5020008C5020008C502000853
:10017000C5020008C5020008C5020008C502000843
:08018000C5020008C5020008D9
:10018800024B1A6801321A60704700BF280000202D
:100198000C4A0D4B1268A3FB02129209013AB2F104
:1001A800807F10B40CD2094B09485A60F02480F8BB
:1001B80023400021072299605DF8044B1A607047BC
:1001C800FEE700BF10000020D34D621010E000E0F1
:1001D80000ED00E02DE9F0434FF4003089B0012133
:1001E80000F0C0FB264F274E0120014600F096FB89
:1001F800002401254FF002084FF00C09384602A9E7
:10020800CDF808908DF80C808DF80D808DF80E4093
:100218008DF80F5000F022FD38464146072200F0C5
:10022800BDFD38460722032100F0B8FD4FF41653F0
:10023800304604A90493ADF81440ADF81640ADF863
:100248001840ADF81C40ADF81A9000F041FE2A465F
:10025800304640F2255100F09BFF262301A88DF877
:1002680004308DF805408DF806408DF8075000F0F1
:100278004BF93046294600F0B1FE09B0BDE8F083DD
:10028800000002400044004070B50B780C4606465A
:1002980083B10948402100F099FF0028F9D025468C
:1002A800304615F8011B00F0CDFE237863780BB1BA
:1002B8002C46EEE770BD00BF00440040FEE700BFDB
:1002C800684620F007018D4619B51349134B99422A
:1002D8000BD2C843184420F00300114C043000230B
:1002E800E258CA5004338342FAD10E4B0E4A934265
:1002F8000AD2D943114421F0030119440022043BD6
:1003080043F8042F8B42FBD100F048F800F096FF29
:10031800BDE81940854670470000002024000020F1
:10032800A81200082400002038000020704700BFF1
:10033800FEE700BFFEE700BFFEE700BFFEE700BF25
:10034800704700BF704700BF704700BF704700BFCD
:1003580038B50F4C40F22551204600F041FF88B1D6
:10036800A1880C4BC9B20A291A6801D0092A0ADDEA
:10037800094D07480024AC5429461C60BDE83840A4
:10038800FFF782BF38BD044CA154501C186038BD1B
:1003980000440040240000202C000020354B364843
:1003A8001968002241F0010119609A60196821F06A
:1003B800847121F4803119605860196882B021F481
:1003C80080211960DA60009201921A6842F4803242
:1003D8001A601A4603E0009BB3F5A04F09D01368D2
:1003E80003F400330193009B01330093019B002B1E
:1003F800F1D0204B1B6813F4003318BF012301937D
:10040800019B012B05D01D4B4FF000629A6002B092
:100418007047184B1A4A186C1A4940F080501864F3
:10042800106840F4404010609A689A609A6842F4F4
:1004380000429A609A6842F4A0529A6059601A6819
:1004480042F080721A6019460B680A4A9B01FBD574
:100458000D4B40F205711960936823F00303936014
:10046800936843F002039360936803F00C03082B2E
:10047800FAD1C8E7003802401030002400ED00E04F
:100488000070004008544007003C0240154B9A6831
:1004980002F00C02042A23D0082A09D0124A114972
:1004A800124B8968C1F30311595CCA401A6170473D
:1004B800586859685B6842024CBF0D4A0A4A01F005
:1004C8003F01C3F38813B2FBF1F202FB03F2054BC1
:1004D8005B68C3F3014301335B00B2FBF3F2DEE771
:1004E800034ADCE7003802400024F4000000002042
:1004F80000127A0040F0BF60024B40F40030D86030
:10050800704700BF00ED00E0C378F0B463B903782A
:10051800194A5909203103F01F03012000FA03F397
:1005280042F82130F0BC7047144B4778DA68857878
:1005380003781149D243C2F30222C2F104040F2600
:10054800E4B207FA04F446FA02F2E4B22A4022437B
:1005580003F1604303F561431201D2B283F800232B
:100568000378012003F01F025B0900FA02F241F848
:100578002320F0BC704700BF00E100E000ED00E080
:1005880021F0604121F07F01014B084398607047DA
:1005980000ED00E0044B1A6919B922EA000018615D
:1005A800704710431861704700ED00E0044B1A686B
:1005B80004280CBF42F0040222F004021A607047BB
:1005C80010E000E00F4B10481968002241F00101CB
:1005D80030B419609A6019680C4D0D4C21F0A8517F
:1005E80021F4102119605D60C3F88440C3F88800C5
:1005F800196821F48021196030BCDA60C3F88C20B6
:10060800704700BF0038024000300024103000243A
:1006180000300020024B00221A701870704700BF8B
:100628000238024082B000230B4A019313689B03EF
:100638000CD4019B01330193019BB3F5A04FF5D175
:10064800054B1868C0F3404002B07047019B013366
:100658000193019BF4E700BF00380240034B1A687E
:1006680022F0F80242EAC0001860704700380240E1
:10067800014B1860704700BF00004742064B00223C
:1006880001281A701A7005D0042802D105221A70A0
:10069800704770471870704770380240014B1860F7
:1006A800704700BF800E474230B4029C064D40EAB6
:1006B80004605B080143013B41EA821242EA0343BA
:1006C8006B6030BC704700BF00380240014B1860B7
:1006D800704700BF600047420907034B41EA80109A
:1006E800C3F88400704700BF00380240014B18600F
:1006F800704700BF68004742120742EA0161034B96
:1007080041EA8010C3F88800704700BF00380240F3
:10071800014B1860704700BF70004742014B1860DA
:10072800704700BF4C004742034B9A6822F0EC62C6
:10073800114308439860704700380240034B9A6899
:1007480022F078421143084398607047003802400D
:10075800034B9A6822F0030210439860704700BF69
:1007680000380240024B986800F00C00704700BF48
:1007780000380240034B9A6822F0F0021043986058
:10078800704700BF00380240034B9A6822F4E052D9
:1007980010439860704700BF00380240034B9A68C6
:1007A80022F4604242EAC000986070470038024074
:1007B8001F4A936803F00C03042B10B41BD0082BBA
:1007C8001CD01C4B03601A491B4A8C68C4F30314E1
:1007D800145DE34043608C68C4F38224145D23FAFB
:1007E80004F4846089685DF8044BC1F34231525CBB
:1007F800D340C3607047114B0360E4E75468516805
:10080800526863024CBF0D4B0A4B01F03F01C2F323
:100818008812B3FBF1F303FB02F3054A5268C2F3F3
:10082800014201325200B3FBF2F30360CBE700BF91
:10083800003802400024F4001400002000127A005E
:1008480000F44073B3F5407F09D1084A916820F05D
:10085800704321F4F81123F440730B439360034B66
:100868001A6FC0F30B001043186770470038024036
:10087800014B1860704700BF3C0E4742014B18609F
:10088800704700BF400E4742014B1860704700BFD9
:100898005C014742044BD3F88C20013822F01F0238
:1008A8000243C3F88C20704700380240054BD3F848
:1008B8008C20013822F4F85242EA0022C3F88C2036
:1008C800704700BF00380240044BD3F88C2022F454
:1008D80040121043C3F88C00704700BF0038024034
:1008E800044BD3F88C2022F440021043C3F88C0048
:1008F800704700BF00380240044BD3F88C2022F424
:1009080040321043C3F88C00704700BF00380240E3
:10091800014B1860704700BFE0114742044B1A6B47
:1009280019B922EA0000186370471043186370472A
:1009380000380240044B5A6B19B922EA0000586388
:10094800704710435863704700380240044B9A6B55
:1009580019B922EA000098637047104398637047FA
:1009680000380240044B1A6C19B922EA00001864D6
:10097800704710431864704700380240044B5A6CA3
:1009880019B922EA00005864704710435864704748
:1009980000380240044B1A6919B922EA00001861AC
:1009A800704710431861704700380240044B5A6979
:1009B80019B922EA0000586170471043586170471E
:1009C80000380240044B9A6919B922EA000098617C
:1009D800704710439861704700380240044B1A6A08
:1009E80019B922EA0000186270471043186270476C
:1009F80000380240044B5A6A19B922EA00005862CA
:100A0800704710435862704700380240044B1A6D13
:100A180019B922EA00001865704710431865704735
:100A280000380240044B5A6D19B922EA0000586593
:100A3800704710435865704700380240044B9A6D60
:100A480019B922EA00009865704710439865704705
:100A580000380240044B1A6E19B922EA00001866E1
:100A6800704710431866704700380240044B5A6EAE
:100A780019B922EA00005866704710435866704753
:100A880000380240044B1A7819B922EA000018709D
:100A980070471043187070470D3802404309012B06
:100AA8000BD0022B094B0CBF1B6F5B6F00F01F00B4
:100AB80023FA00F000F001007047044B1B6800F0B7
:100AC8001F0023FA00F000F00100704700380240D0
:100AD800024B5A6F42F080725A67704700380240E2
:100AE800034BDB6818420CBF00200120704700BF91
:100AF80000380240014B1870704700BF0E380240A2
:100B080008B54B4B98422AD04A4B984231D04A4BB1
:100B1800984238D0494B98423FD0494B984246D0EA
:100B2800484B98424DD0484B984254D0474B984236
:100B38005BD0474B984262D0464B98426BD0464BAD
:100B4800984200D008BD4FF480600121FFF722FFD2
:100B58004FF480600021BDE80840FFF71BBF01206B
:100B68000146FFF717FF01200021BDE80840FFF705
:100B780011BF02200121FFF70DFF02200021BDE86F
:100B88000840FFF707BF04200121FFF703FF0420F7
:100B98000021BDE80840FFF7FDBE08200121FFF74E
:100BA800F9FE08200021BDE80840FFF7F3BE102039
:100BB8000121FFF7EFFE10200021BDE80840FFF7F4
:100BC800E9BE20200121FFF7E5FE20200021BDE835
:100BD8000840FFF7DFBE40200121FFF7DBFE402081
:100BE8000021BDE80840FFF7D5BE80200121FFF7AE
:100BF800D1FE80200021BDE80840FFF7CBBE4FF4AE
:100C080080700121FFF7C6FE4FF480700021BDE817
:100C18000840FFF7BFBE4FF400700121FFF7BAFE8E
:100C28004FF400700021BDE80840FFF7B3BE00BFD5
:100C3800000002400004024000080240000C02408C
:100C4800001002400014024000180240001C02403C
:100C580000200240002402400028024000222DE922
:100C6800F00713460E6801274FF0030804E001332C
:100C7800102B02F102022ED007FA03F404EA06054B
:100C8800A542F4D1D0F8009091F804C008FA02F413
:100C9800E44304EA0909C0F80090D0F800900CFA7F
:100CA80002FA0CF1FF3C5FFA8CFC4AEA0909BCF134
:100CB800010FC0F8009011D9C56891F807C02C4001
:100CC800C460C5680CFA02F401332C43102BC460CD
:100CD80002F10202D0D1BDE8F0077047D0F808A0B1
:100CE80091F8059091F806C004EA0A0AC0F808A02D
:100CF800D0F808A009FA02F949EA0A09C0F80890E8
:100D0800D0F8049029EA0505456045680CFA03FC0B
:100D18001FFA8CFC4CEA05054560CDE700234FF629
:100D2800FF720260037143718371C371704700BF22
:100D380082B04FF480330193019B0B430193019BD5
:100D4800C361C161019BC361C3690193C369019315
:100D580002B07047036919420CBF00200120704798
:100D6800006980B2704700BF436919420CBF002078
:100D780001207047406980B2704700BF0183704707
:100D8800418370470AB9418370470183704700BFA8
:100D9800416170474369594041617047CB0800EB96
:100DA800830001F0070110B48900046A0F238B4007
:100DB80024EA03030362036A5DF8044B8A40134381
:100DC8000362704708B53A4B984221D0394B984294
:100DD80028D0394B984231D0384B98423AD0384BCA
:100DE800984243D0374B98424CD0374B984253D017
:100DF800364B984200D008BD4FF000400121FFF764
:100E0800EDFD4FF000400021BDE80840FFF7E6BDCA
:100E180010200121FFF7EEFD10200021BDE8084059
:100E2800FFF7E8BD4FF400300121FFF7D7FD4FF47D
:100E380000300021BDE80840FFF7D0BD4FF4802006
:100E48000121FFF7CBFD4FF480200021BDE80840C9
:100E5800FFF7C4BD4FF400200121FFF7BFFD4FF499
:100E680000200021BDE80840FFF7B8BD4FF480100E
:100E78000121FFF7B3FD4FF480100021BDE80840C1
:100E8800FFF7ACBD20200121FFF7B4FD2020002191
:100E9800BDE80840FFF7AEBD4FF080400121FFF7E5
:100EA8009DFD4FF080400021BDE80840FFF796BD4A
:100EB800001001400044004000480040004C004041
:100EC800005000400014014000780040007C0040C1
:100ED800F0B50D46018AEF882E89AB88AA8989B2B8
:100EE800044621F44051394368892182A18933435A
:100EF80089B2034321F4B05121F00C019BB20B439A
:100F0800A381A38A9BB223F44073134385B0A382C1
:100F18006846FFF74DFC1D4B9C4229D003F58063C2
:100F28009C4225D0029BA2892968A08912B2002A76
:100F380003EB8303B4BF4900890003EB8303B3FBCE
:100F4800F1F2134900B2A1FB02535B0964250028A2
:100F580003FB15224FEA03130CDB12013232A1FB0B
:100F68000251C1F343110B439BB2238105B0F0BD7D
:100F7800039BD8E7D2003232A1FB0201C1F3421130
:100F88000B439BB2238105B0F0BD00BF00100140A8
:100F98001F85EB5100234FF416510C22016042814A
:100FA8008380C38003818381704700BF30B40A887F
:100FB8004D888C88038AC9882A4322430A439BB2F6
:100FC80092B223F470631343038230BC704700BFAE
:100FD8000023038043808380C3807047838929B9B5
:100FE80023F400531B041B0C838170479BB243F40A
:100FF80000538381704700BF038B03F47F4303834F
:10100800038B9BB219430183704700BF838919B9C9
:10101800C3F30E03838170476FEA43436FEA534378
:101028009BB28381704700BF838A29B923F4006388
:101038001B041B0C838270479BB243F400638382BA
:10104800704700BFC1F30801818070478088C0F3F2
:1010580008007047038A23F00F031B041B0C03824C
:10106800038A9BB219430182704700BF838929B95B
:1010780023F002031B041B0C838170479BB243F0CF
:1010880002038381704700BF838923F400631B0434
:101098001B0C838183899BB219438181704700BFF0
:1010A800038A23F020031B041B0C0382038A9BB2D0
:1010B80019430182704700BF038A29B923F480438A
:1010C8001B041B0C038270479BB243F480430382CA
:1010D800704700BF83899BB243F001038381704747
:1010E800838A29B923F008031B041B0C83827047E9
:1010F8009BB243F008038382704700BF038BDBB2C7
:101108000383038B9BB243EA01210183704700BF2D
:10111800838A29B923F020031B041B0C83827047A0
:101128009BB243F020038382704700BF838A29B9AA
:1011380023F010031B041B0C838270479BB243F0FF
:1011480010038382704700BF838A23F004031B04C3
:101158001B0C8382838A9BB219438182704700BF2C
:10116800838A29B923F002031B041B0C838270476E
:101178009BB243F002038382704700BF838A9BB20D
:101188001AB923EA010181827047194381827047A5
:1011980001F01F0310B4C1F342110124A14204FA63
:1011A80003F310D002290CBF1030143004682AB998
:1011B80024EA030303605DF8044B7047234303608C
:1011C8005DF8044B70470C30F0E700BF0388194204
:1011D8000CBF002001207047C94389B201807047C5
:1011E80010B4C1F34213012401F01F02A34204FA10
:1011F80002F217D0022B0CBF038A838A9BB21340DA
:10120800028892B253B1090A012303FA01F111428B
:101218000CBF002001205DF8044B704718465DF8AC
:10122800044B704783899BB21340E9E7090A0123FD
:1012380003FA01F1C94389B2018070470E4A08B523
:1012480012680E4BA3FB02129209013AB2F1807F99
:1012580010D20B4B0B485A6000210722F02480F86B
:10126800234099601A60FEF7B5FF07480749FFF762
:101278000BF8FEE7FEE700BF10000020D34D621018
:1012880010E000E000ED00E0004400409812000883
:1012980048656C6C6F20576F726C64210A000000FF
:1012A800000000000000000001020304060708090E
:1012B800007A030A0000000001020304010203048B
:0412C8000607080904
:04000005080002C924
:00000001FF
