:020000040800F2
:100000000000022079020008E5020008E902000869
:100010007502000875020008750200080000000063
:100020000000000000000000000000007502000851
:100030007502000800000000750200088901000830
:1000400075020008750200087502000875020008B4
:10005000750200087502000809030008750200080F
:100060007502000875020008750200087502000894
:100070007502000875020008750200087502000884
:100080007502000875020008750200087502000874
:100090007502000875020008750200087502000864
:1000A0007502000875020008750200087502000854
:1000B0007502000875020008750200087502000844
:1000C0007502000875020008750200087502000834
:1000D0007502000875020008750200087502000824
:1000E0007502000875020008750200087502000814
:1000F0007502000875020008750200087502000804
:1001000075020008750200087502000875020008F3
:1001100075020008750200087502000875020008E3
:1001200075020008750200087502000875020008D3
:1001300075020008750200087502000875020008C3
:1001400075020008750200087502000875020008B3
:1001500075020008750200087502000875020008A3
:100160007502000875020008750200087502000893
:100170007502000875020008750200087502000883
:08018000750200087502000879
:10018800024B1A6801321A60704700BF2400002031
:100198000C4A0D4B1268A3FB02129209013AB2F104
:1001A800807F10B40CD2094B09485A60F02480F8BB
:1001B80023400021072299605DF8044B1A607047BC
:1001C800FEE700BF10000020D34D621010E000E0F1
:1001D80000ED00E030B5082087B0012100F062FB97
:1001E80001244FF400520025022302A91D4802925F
:1001F8008DF80D308DF80C408DF80E508DF80F509D
:1002080000F06EFD2046214600F04CFB21464FF4DD
:10021800804000F077FB02A913488DF80C508DF848
:100228000F50029400F05CFD2946284600F026FE97
:10023800082304A88DF8153004948DF814508DF80F
:10024800164000F02FFC062301A88DF805408DF814
:1002580006408DF807408DF8043000F019F907B012
:1002680030BD00BF000C024000000240FEE700BFA6
:10027800684620F007018D4619B51349134B99427A
:100288000BD2C843184420F00300114C043000235B
:10029800E258CA5004338342FAD10E4B0E4A9342B5
:1002A8000AD2D943114421F0030119440022043B26
:1002B80043F8042F8B42FBD100F034F800F00AFE1B
:1002C800BDE8194085467047000000202400002042
:1002D8002C0F00082400002028000020704700BFD1
:1002E800FEE700BFFEE700BFFEE700BFFEE700BF76
:1002F800704700BF704700BF704700BF704700BF1E
:1003080008B5012000F02EFC00B908BD04484FF4E0
:10031800005100F081FD0120BDE8084000F02CBC30
:10032800000C0240354B36481968002241F00101A3
:1003380019609A60196821F0847121F4803119607C
:100348005860196882B021F480211960DA6000923F
:1003580001921A6842F480321A601A4603E0009B40
:10036800B3F5A04F09D0136803F400330193009B41
:1003780001330093019B002BF1D0204B1B6813F431
:10038800003318BF01230193019B012B05D01D4B9E
:100398004FF000629A6002B07047184B1A4A186C06
:1003A8001A4940F080501864106840F440401060CA
:1003B8009A689A609A6842F400429A609A6842F48D
:1003C800A0529A6059601A6842F080721A60194601
:1003D8000B680A4A9B01FBD50D4B40F20571196069
:1003E800936823F003039360936843F002039360D8
:1003F800936803F00C03082BFAD1C8E700380240D1
:100408001030002400ED00E0007000400854400760
:10041800003C0240154B9A6802F00C02042A23D0D3
:10042800082A09D0124A1149124B8968C1F30311ED
:10043800595CCA401A617047586859685B6842023B
:100448004CBF0D4A0A4A01F03F01C3F38813B2FBBF
:10045800F1F202FB03F2054B5B68C3F3014301337E
:100468005B00B2FBF3F2DEE7034ADCE70038024048
:100478000024F4000000002000127A0040F0BF6061
:10048800024B40F40030D860704700BF00ED00E038
:10049800C378F0B463B90378194A5909203103F0D5
:1004A8001F03012000FA03F342F82130F0BC704723
:1004B800144B4778DA68857803781149D243C2F338
:1004C8000222C2F104040F26E4B207FA04F446FA41
:1004D80002F2E4B22A40224303F1604303F5614388
:1004E8001201D2B283F800230378012003F01F021F
:1004F8005B0900FA02F241F82320F0BC704700BF04
:1005080000E100E000ED00E021F0604121F07F0112
:10051800014B08439860704700ED00E0044B1A69EE
:1005280019B922EA00001861704710431861704732
:1005380000ED00E0044B1A6804280CBF42F00402E6
:1005480022F004021A60704710E000E00F4B1048D8
:100558001968002241F0010130B419609A601968E5
:100568000C4D0D4C21F0A85121F4102119605D604B
:10057800C3F88440C3F88800196821F48021196001
:1005880030BCDA60C3F88C20704700BF00380240E6
:10059800003000241030002400300020024B0022DC
:1005A8001A701870704700BF0238024082B00023EA
:1005B8000B4A019313689B030CD4019B01330193ED
:1005C800019BB3F5A04FF5D1054B1868C0F3404027
:1005D80002B07047019B01330193019BF4E700BF10
:1005E80000380240034B1A6822F0F80242EAC000C1
:1005F8001860704700380240014B1860704700BF10
:1006080000004742064B002201281A701A7005D0D4
:10061800042802D105221A70704770471870704775
:1006280070380240014B1860704700BF800E474287
:1006380030B4029C064D40EA04605B080143013B6C
:1006480041EA821242EA03436B6030BC704700BF44
:1006580000380240014B1860704700BF60004742F5
:100668000907034B41EA8010C3F88400704700BFB4
:1006780000380240014B1860704700BF68004742CD
:10068800120742EA0161034B41EA8010C3F888006F
:10069800704700BF00380240014B1860704700BF28
:1006A80070004742014B1860704700BF4C0047423A
:1006B800034B9A6822F0EC62114308439860704734
:1006C80000380240034B9A6822F0784211430843ED
:1006D8009860704700380240034B9A6822F0030282
:1006E80010439860704700BF00380240024B98687A
:1006F80000F00C00704700BF00380240034B9A68B6
:1007080022F0F00210439860704700BF00380240A2
:10071800034B9A6822F4E05210439860704700BF78
:1007280000380240034B9A6822F4604242EAC00053
:1007380098607047003802401F4A936803F00C0322
:10074800042B10B41BD0082B1CD01C4B03601A4977
:100758001B4A8C68C4F30314145DE34043608C683F
:10076800C4F38224145D23FA04F4846089685DF874
:10077800044BC1F34231525CD340C3607047114B04
:100788000360E4E754685168526863024CBF0D4B3C
:100798000A4B01F03F01C2F38812B3FBF1F303FBEC
:1007A80002F3054A5268C2F3014201325200B3FB18
:1007B800F2F30360CBE700BF003802400024F400E6
:1007C8001400002000127A0000F44073B3F5407F53
:1007D80009D1084A916820F0704321F4F81123F4F4
:1007E80040730B439360034B1A6FC0F30B00104325
:1007F8001867704700380240014B1860704700BF07
:100808003C0E4742014B1860704700BF400E4742FC
:10081800014B1860704700BF5C014742044BD3F896
:100828008C20013822F01F020243C3F88C20704745
:1008380000380240054BD3F88C20013822F4F852D6
:1008480042EA0022C3F88C20704700BF00380240FB
:10085800044BD3F88C2022F440121043C3F88C00C8
:10086800704700BF00380240044BD3F88C2022F4B4
:1008780040021043C3F88C00704700BF00380240A4
:10088800044BD3F88C2022F440321043C3F88C0078
:10089800704700BF00380240014B1860704700BF26
:1008A800E0114742044B1A6B19B922EA0000186399
:1008B800704710431863704700380240044B5A6B66
:1008C80019B922EA0000586370471043586370470B
:1008D80000380240044B9A6B19B922EA0000986369
:1008E800704710439863704700380240044B1A6CF5
:1008F80019B922EA00001864704710431864704759
:1009080000380240044B5A6C19B922EA00005864B6
:10091800704710435864704700380240044B1A6906
:1009280019B922EA0000186170471043186170472E
:1009380000380240044B5A6919B922EA000058618C
:10094800704710435861704700380240044B9A6959
:1009580019B922EA000098617047104398617047FE
:1009680000380240044B1A6A19B922EA00001862DA
:10097800704710431862704700380240044B5A6AA7
:1009880019B922EA0000586270471043586270474C
:1009980000380240044B1A6D19B922EA00001865A4
:1009A800704710431865704700380240044B5A6D71
:1009B80019B922EA00005865704710435865704716
:1009C80000380240044B9A6D19B922EA0000986574
:1009D800704710439865704700380240044B1A6E00
:1009E80019B922EA00001866704710431866704764
:1009F80000380240044B5A6E19B922EA00005866C2
:100A0800704710435866704700380240044B1A7804
:100A180019B922EA0000187070471043187070471F
:100A28000D3802404309012B0BD0022B094B0CBF98
:100A38001B6F5B6F00F01F0023FA00F000F001004D
:100A48007047044B1B6800F01F0023FA00F000F009
:100A58000100704700380240024B5A6F42F0807222
:100A68005A67704700380240034BDB6818420CBFD6
:100A780000200120704700BF00380240014B187069
:100A8800704700BF0E380240044B054900221A6027
:100A98005A609A60DA605961704700BF003C0140B3
:100AA800FFFF7F00837970B42BB31D4B01681E686C
:100AB80002794579CC4326401E605E6802F1804287
:100AC80002F59E3234405C6014682143116002686C
:100AD8009868D14308409860D868102D01EA000151
:100AE800D96014D005F1804303F59E3370BC1968B2
:100AF8000A431A6070470379016803F1804303F5DC
:100B08009E3370BC1A6822EA01021A60704799681D
:100B180011439960D9680A43DA6070BC704700BF16
:100B2800003C014000230C22427103600371837171
:100B3800704700BF024B1A6910431861704700BF25
:100B4800003C0140034B5B6918420CBF00200120A8
:100B5800704700BF003C0140014B5861704700BF1F
:100B6800003C0140034B5B6918420CBF0020012088
:100B7800704700BF003C0140014B5861704700BFFF
:100B8800003C014008B54B4B98422AD04A4B98424A
:100B980031D04A4B984238D0494B98423FD0494BC4
:100BA800984246D0484B98424DD0484B984254D032
:100BB800474B98425BD0474B984262D0464B98428D
:100BC8006BD0464B984200D008BD4FF4806001219D
:100BD800FFF7A4FE4FF480600021BDE80840FFF74E
:100BE8009DBE01200146FFF799FE01200021BDE8C6
:100BF8000840FFF793BE02200121FFF78FFE022075
:100C08000021BDE80840FFF789BE04200121FFF755
:100C180085FE04200021BDE80840FFF77FBE0820BC
:100C28000121FFF77BFE08200021BDE80840FFF7FF
:100C380075BE10200121FFF771FE10200021BDE8CC
:100C48000840FFF76BBE20200121FFF767FE202038
:100C58000021BDE80840FFF761BE40200121FFF7F1
:100C68005DFE40200021BDE80840FFF757BE802008
:100C78000121FFF753FE80200021BDE80840FFF75F
:100C88004DBE4FF480700121FFF748FE4FF480708D
:100C98000021BDE80840FFF741BE4FF40070012174
:100CA800FFF73CFE4FF400700021BDE80840FFF755
:100CB80035BE00BF000002400004024000080240A8
:100CC800000C0240001002400014024000180240CC
:100CD800001C02400020024000240240002802407C
:100CE80000222DE9F00713460E6801274FF003088C
:100CF80004E00133102B02F102022ED007FA03F4AC
:100D080004EA0605A542F4D1D0F8009091F804C091
:100D180008FA02F4E44304EA0909C0F80090D0F89C
:100D280000900CFA02FA0CF1FF3C5FFA8CFC4AEADC
:100D38000909BCF1010FC0F8009011D9C56891F8F4
:100D480007C02C40C460C5680CFA02F401332C4378
:100D5800102BC46002F10202D0D1BDE8F007704741
:100D6800D0F808A091F8059091F806C004EA0A0A9C
:100D7800C0F808A0D0F808A009FA02F949EA0A0957
:100D8800C0F80890D0F8049029EA05054560456840
:100D98000CFA03FC1FFA8CFC4CEA05054560CDE70C
:100DA80000234FF6FF720260037143718371C371B0
:100DB800704700BF82B04FF480330193019B0B430F
:100DC8000193019BC361C161019BC361C369019325
:100DD800C369019302B07047036919420CBF002030
:100DE80001207047006980B2704700BF436919420B
:100DF8000CBF002001207047406980B2704700BFD7
:100E080001837047418370470AB941837047018362
:100E1800704700BF4161704743695940416170475D
:100E2800CB0800EB830001F0070110B48900046AC5
:100E38000F238B4024EA03030362036A5DF8044B23
:100E48008A4013430362704708B54FF4804001217C
:100E5800FFF794FD4FF480400021BDE80840FFF7FC
:100E68008DBD00BF014B1860704700BF00380140BE
:100E7800014B1860704700BF2000274201F0FC03B7
:100E880003F1804303F59C3301F0030110B489009A
:100E98009C680F228A4024EA02029A609A685DF8E8
:100EA800044B884002439A60704700BF014B1860AA
:100EB800704700BFDC002742014B1860704700BF35
:100EC80000042742024B186AC0F30020704700BF95
:100ED800003801400E4A08B512680E4BA3FB0212F7
:100EE8009209013AB2F1807F11D20B4B0B485A603C
:100EF80000210722F02480F8234099601A60FFF748
:100F080069F907484FF40051FFF77AFFFEE7FEE75B
:100F180010000020D34D621010E000E000ED00E06A
:040F2800000C024077
:100F2C00000000000000000001020304060708098D
:100F3C00007A030A0000000001020304010203040A
:040F4C000607080983
:040000050800027974
:00000001FF
